{
  "contractName": "BuyCar",
  "abi": [
    {
      "inputs": [],
      "payable": false,
      "stateMutability": "nonpayable",
      "type": "constructor"
    },
    {
      "constant": true,
      "inputs": [],
      "name": "administrator",
      "outputs": [
        {
          "internalType": "address",
          "name": "",
          "type": "address"
        }
      ],
      "payable": false,
      "stateMutability": "view",
      "type": "function"
    },
    {
      "constant": true,
      "inputs": [
        {
          "internalType": "uint256",
          "name": "",
          "type": "uint256"
        }
      ],
      "name": "buyers",
      "outputs": [
        {
          "internalType": "address",
          "name": "",
          "type": "address"
        }
      ],
      "payable": false,
      "stateMutability": "view",
      "type": "function"
    },
    {
      "constant": true,
      "inputs": [
        {
          "internalType": "address",
          "name": "",
          "type": "address"
        }
      ],
      "name": "buyerscontractadd",
      "outputs": [
        {
          "internalType": "address",
          "name": "",
          "type": "address"
        }
      ],
      "payable": false,
      "stateMutability": "view",
      "type": "function"
    },
    {
      "constant": true,
      "inputs": [
        {
          "internalType": "address",
          "name": "",
          "type": "address"
        }
      ],
      "name": "sellers",
      "outputs": [
        {
          "internalType": "bool",
          "name": "",
          "type": "bool"
        }
      ],
      "payable": false,
      "stateMutability": "view",
      "type": "function"
    },
    {
      "constant": false,
      "inputs": [
        {
          "internalType": "uint256",
          "name": "carId",
          "type": "uint256"
        }
      ],
      "name": "buy",
      "outputs": [
        {
          "internalType": "uint256",
          "name": "",
          "type": "uint256"
        }
      ],
      "payable": true,
      "stateMutability": "payable",
      "type": "function"
    },
    {
      "constant": true,
      "inputs": [],
      "name": "getBuyers",
      "outputs": [
        {
          "internalType": "address[9]",
          "name": "",
          "type": "address[9]"
        }
      ],
      "payable": false,
      "stateMutability": "view",
      "type": "function"
    },
    {
      "constant": false,
      "inputs": [
        {
          "internalType": "uint256",
          "name": "carId",
          "type": "uint256"
        }
      ],
      "name": "release",
      "outputs": [
        {
          "internalType": "uint256",
          "name": "",
          "type": "uint256"
        }
      ],
      "payable": false,
      "stateMutability": "nonpayable",
      "type": "function"
    }
  ],
  "bytecode": "0x608060405234801561001057600080fd5b5033600b60006101000a81548173ffffffffffffffffffffffffffffffffffffffff021916908373ffffffffffffffffffffffffffffffffffffffff1602179055506105ef806100616000396000f3fe6080604052600436106100705760003560e01c8063da990b101161004e578063da990b101461016f578063f2aa821814610200578063f53d0a8e1461027b578063f64bfaba146102d257610070565b806337bdc99b146100755780636d47ab72146100c4578063d96a094a1461012d575b600080fd5b34801561008157600080fd5b506100ae6004803603602081101561009857600080fd5b8101908080359060200190929190505050610325565b6040518082815260200191505060405180910390f35b3480156100d057600080fd5b50610113600480360360208110156100e757600080fd5b81019080803573ffffffffffffffffffffffffffffffffffffffff1690602001909291905050506103f9565b604051808215151515815260200191505060405180910390f35b6101596004803603602081101561014357600080fd5b8101908080359060200190929190505050610419565b6040518082815260200191505060405180910390f35b34801561017b57600080fd5b506101be6004803603602081101561019257600080fd5b81019080803573ffffffffffffffffffffffffffffffffffffffff16906020019092919050505061048a565b604051808273ffffffffffffffffffffffffffffffffffffffff1673ffffffffffffffffffffffffffffffffffffffff16815260200191505060405180910390f35b34801561020c57600080fd5b506102396004803603602081101561022357600080fd5b81019080803590602001909291905050506104bd565b604051808273ffffffffffffffffffffffffffffffffffffffff1673ffffffffffffffffffffffffffffffffffffffff16815260200191505060405180910390f35b34801561028757600080fd5b506102906104f0565b604051808273ffffffffffffffffffffffffffffffffffffffff1673ffffffffffffffffffffffffffffffffffffffff16815260200191505060405180910390f35b3480156102de57600080fd5b506102e7610516565b6040518082600960200280838360005b838110156103125780820151818401526020810190506102f7565b5050505090500191505060405180910390f35b6000808210158015610338575060088211155b61034157600080fd5b3373ffffffffffffffffffffffffffffffffffffffff166000836009811061036557fe5b0160009054906101000a900473ffffffffffffffffffffffffffffffffffffffff1673ffffffffffffffffffffffffffffffffffffffff1614156103f15760008083600981106103b157fe5b0160006101000a81548173ffffffffffffffffffffffffffffffffffffffff021916908373ffffffffffffffffffffffffffffffffffffffff1602179055505b819050919050565b600a6020528060005260406000206000915054906101000a900460ff1681565b600080821015801561042c575060088211155b61043557600080fd5b336000836009811061044357fe5b0160006101000a81548173ffffffffffffffffffffffffffffffffffffffff021916908373ffffffffffffffffffffffffffffffffffffffff160217905550819050919050565b60096020528060005260406000206000915054906101000a900473ffffffffffffffffffffffffffffffffffffffff1681565b600081600981106104ca57fe5b016000915054906101000a900473ffffffffffffffffffffffffffffffffffffffff1681565b600b60009054906101000a900473ffffffffffffffffffffffffffffffffffffffff1681565b61051e610597565b600060098060200260405190810160405280929190826009801561058d576020028201915b8160009054906101000a900473ffffffffffffffffffffffffffffffffffffffff1673ffffffffffffffffffffffffffffffffffffffff1681526020019060010190808311610543575b5050505050905090565b60405180610120016040528060099060208202803883398082019150509050509056fea265627a7a72315820d8710fa41d5e7fcab615c7f9d9a935810b950bea3319872ed5489f206ddf7e2264736f6c63430005100032",
  "source": "pragma solidity ^0.5.0;\r\n\r\ncontract BuyCar\r\n{\r\n    //VARIABLES\r\n\r\n//define an array of 9 buyers for the marketplace and their corresponding contract address\r\n\r\n//define sellers for the marketplace\r\n\r\n//car marketplace administrator\r\n\r\n\r\naddress[9] public buyers; \r\n\r\nmapping(address => address) public buyerscontractadd;\r\n\r\n\r\n    \r\nmapping(address => bool) public sellers;\r\n\r\n\r\naddress public administrator;\r\n\r\n\r\n//MODIFIERS\r\n\r\n    //check if buyer is a seller \r\n\t\r\n\t//behavioral pattern state machine modifier to check if the address is a seller address\r\n\r\n\r\n    modifier isSeller { require(sellers[msg.sender]); _; }\r\n\r\n  \r\n  modifier isSellerAddress(address _address) { require(sellers[_address]); _; }\r\n\r\n//CONSTRUCTOR : code is run once when contract is created\r\n\r\n     \r\n    constructor() public {\r\n\r\n        administrator = msg.sender;\r\n\r\n    }\r\n\r\n   //FUNCTIONS\r\n\r\n    //1. Buy a car :\r\n\r\n    function buy(uint carId) payable public returns (uint)\r\n    {\r\n        require(carId >= 0 && carId <= 8);\r\n        buyers[carId] = msg.sender;\r\n\r\n        return carId;\r\n    }\r\n\r\n    //2. Retrieve the Buyers : View does not modify state of current contract\r\n\r\n    function getBuyers() public view returns (address[9] memory)\r\n    {\r\n        return buyers;\r\n    }\r\n\r\n   // 3. Release a car :\r\n\r\n    function release(uint carId) public returns (uint)\r\n    {\r\n        require(carId >= 0 && carId <= 8);\r\n\r\n        if (buyers[carId] == msg.sender)\r\n        {\r\n            buyers[carId] = address(0);\r\n        }\r\n        return carId;\r\n    }\r\n\r\n\r\n\r\n   \r\n }",
  "sourcePath": "D:/carmktplace/contracts/BuyCar.sol",
  "compiler": {
    "name": "solc",
    "version": "0.5.16+commit.9c3226ce.Emscripten.clang"
  },
  "schemaVersion": "3.3.2",
  "updatedAt": "2021-01-04T05:53:33.957Z",
  "networkType": "ethereum",
  "devdoc": {
    "methods": {}
  },
  "userdoc": {
    "methods": {}
  }
}